:020000020000FC
:1000000004C018951895F8940EC1F894CFEDCDBFA3
:10001000D0E0A097DBD0E2D1E6E7F4E012D281E0B5
:10002000F9D1E6E8F4E00DD213D2E1E6F0E000E227
:10003000BB27B1930A95E9F708E70093710003E144
:100040000093720001E100937300CFEDCDBFD0E0CB
:10005000A097C5D048B74078E9F3F89440EC48BF82
:1000600040937400A3D0439540936F0019F45395C7
:1000700050937000603021F4403341F40AD1DEC067
:10008000613021F4403411F404D1D8C07894E2CF27
:10009000CFEDCDBFD0E0A09799D066D1009175008B
:1000A000003011F47BD105C0013011F475D101C0CD
:1000B0007DD194D142D0003021F480E760D08EE62B
:1000C00009C0013021F48EE65AD085E703C085E7E8
:1000D00056D08DE62BD056D0E0E0E8BBB9D1B8D1F0
:1000E000B7D1009175000230C9F45CD122E35BD135
:1000F00023D12ED162D0E2E9F4E0A3D11ED08191C8
:1001000087D11A951030D9F7A3D157D015D101E076
:100110004427101A240A340A440A58F78FE07BD186
:100120008AE276D1E0E0E8BBB4D08FCF8F9381E054
:1001300071D138D102D08F910895DBD00091750034
:1001400010916C00EBE6F0E0E11B0024F00908954B
:1001500080E25ED18F915CD186E45AC1223019F0E1
:100160008091680055D18091690052D180916A00D8
:100170004FD1EECF02D08EE24BC180E349C122E0E5
:1001800033E002C023E034E08F93131740F4F2DF32
:10019000121721F3F2DF123031F3EFDFE7CF819155
:1001A00037D11A951217D9F7E6DFD8CF60917500CD
:1001B00040916F0050917000089506D010E180E2E8
:1001C00027D11A951030D9F781E025C127D0EE2725
:1001D000E9BFEEBDEFBDE8B908B608BE0895F894D2
:1001E000F5DF6CD07CEF77BB772778BBB7D0FF27E4
:1001F000FDBDFCBDFFBD48E049BFE0917600E2BB1C
:10020000E6E0EA95F1F75091770041E44EBD52BB2C
:1002100087E088B988B788BF789408957CE371BB7C
:1002200070E172BB089504B400926D0005B50093AF
:100230006E0010917400103029F41ED0EFDFE2E35D
:100240000BD103CFB3DF613051F44030A1F4003063
:1002500091F4002D0E5178F440937500EFCF623089
:1002600051F424E669D05AD008E04427101A240A31
:10027000340A440A88F30CCF003019F0009374005C
:100280000895802DA1D000917500003059F400929E
:100290007100009175000395033009F40027009365
:1002A00075000895013019F400927200F2CF0092A7
:1002B000730000937400B2DFCBD0EBCF30917500A8
:1002C000337061F0313029F004E114E020917300C3
:1002D00009C008E118E02091720004C000E310E2B8
:1002E000209171000093760010937700209378009E
:1002F000089522D0ABE6B0E02AE010D000630E9360
:10030000A136D9F709E01C91103321F410E21D93B6
:100310000A95C9F7039500936C000895002710E231
:10032000110C221C331C441C001F021710F01394E4
:10033000021B1A95A9F7089505D041904D921A9580
:10034000E1F70895A1E0BB27EDE6F0E014E00895A1
:10035000F9DF1D9011921A95E1F70895F5DF002459
:1003600001921A95E9F7089500907800EDDF8894DE
:1003700010801008119200241A95D1F708F0089502
:100380000090780010906D00010C20907500F0E056
:10039000E1E7E20D0082E2CF22E001C029E1CCDFFB
:1003A00007D0D6CF24E6C8DFB9DFD2CF2AE0FBCF13
:1003B00011E2001B08F4020F079547943794279425
:1003C00017941A95B9F708958F93829501D08F915C
:1003D0008F708A3008F0895F805D1AC0ECEFE7BB50
:1003E000C298C398E8E138D083E01CD0E8E034D06C
:1003F0001FD0EDE03AD01CD0C4981AD088E20DD0BE
:1004000086E00BD08CE009D081E007D0E4E024C086
:10041000C29A04C0806480688A95C298582F8295D9
:1004200001D0852F78B37F708295807F872B88BB22
:10043000C39AC39AC39AC398EF93E4E016D0EF919E
:100440000895C8950020E1F3802DE2DF3196F9CFC1
:10045000E8EE02D001D000D044E155E85A95F1F71A
:100460004A95D9F7EA95C1F7089569E16A95F1F7D8
:10047000EA95D9F708952020574547492043206D34
:1004800065746572000063616C6962722E20307859
:0E049000000064697363686172676520000094
:00000001FF
